:030000000200E714
:0C00E700787FE4F6D8FD75810C02008ED5
:10008E001200031200C2E4F5A81201117F187E01BE
:0F009E001200AD1200FF7FD07E071200AD80EA86
:10000300C290C291D2A7D2A4D292D280D281D282FC
:10001300D283D284D285E4F593759401F5917592D8
:1000230001F59575960FF5B175B201F5B3F5B4F514
:0C003300C9F5CAF5CBF5CCF5E1F5E222E9
:1000C200758920758BFA758DFAD28E758780759831
:0400D20050D299224D
:1000D60030990DE50C64017007850899F50CC299F5
:0100E60022F7
:0C00F300309808859909750C01C298220C
:10003F00E50924CE601314601314601314601314B5
:10004F0060132405701202010802011102011A0245
:09005F00012302012C12013522DB
:0900FF00C2A3C2A2C2A1C2A02248
:09010800C2A3D2A2D2A1C2A0221E
:09011100D2A3C2A2D2A1C2A02215
:09011A00C2A3D2A2C2A1D2A0220C
:09012300D2A3C2A2D2A1C2A02203
:09012C00C2A3C2A2D2A1C2A0220A
:09013500D2A3C2A2C2A1C2A02201
:03013E00D290223A
:03014100D2912236
:03014400C2902244
:03014700C2912240
:03014A00D292222C
:03014D00C2922239
:100068007F212080037F41222081037F422220823A
:10007800037F43222083037F44222084037F452279
:050088002085027F4607
:01008D002250
:01015000228C
:01015100228B
:1000AD00EF1FAC0670011E4C600A7D0B7CBEDCFEA2
:0400BD00DDFC80ECFA
:0100C100221C
:00000001FF
